{
  "contractName": "Evidence",
  "abi": [
    {
      "constant": true,
      "inputs": [
        {
          "name": "",
          "type": "uint256"
        },
        {
          "name": "",
          "type": "uint256"
        }
      ],
      "name": "cases",
      "outputs": [
        {
          "name": "name",
          "type": "string"
        },
        {
          "name": "hash",
          "type": "string"
        },
        {
          "name": "signer",
          "type": "address"
        },
        {
          "name": "about",
          "type": "string"
        }
      ],
      "payable": false,
      "stateMutability": "view",
      "type": "function"
    },
    {
      "inputs": [],
      "payable": false,
      "stateMutability": "nonpayable",
      "type": "constructor"
    },
    {
      "constant": false,
      "inputs": [
        {
          "name": "name",
          "type": "string"
        },
        {
          "name": "hash",
          "type": "string"
        },
        {
          "name": "num",
          "type": "uint256"
        },
        {
          "name": "about",
          "type": "string"
        }
      ],
      "name": "add",
      "outputs": [],
      "payable": false,
      "stateMutability": "nonpayable",
      "type": "function"
    }
  ],
  "bytecode": "0x608060405234801561001057600080fd5b50600060018190555061095c806100286000396000f3fe608060405234801561001057600080fd5b50600436106100365760003560e01c80634187a17d1461003b5780638b75792e1461022e575b600080fd5b61022c6004803603608081101561005157600080fd5b810190808035906020019064010000000081111561006e57600080fd5b82018360208201111561008057600080fd5b803590602001918460018302840111640100000000831117156100a257600080fd5b91908080601f016020809104026020016040519081016040528093929190818152602001838380828437600081840152601f19601f8201169050808301925050505050505091929192908035906020019064010000000081111561010557600080fd5b82018360208201111561011757600080fd5b8035906020019184600183028401116401000000008311171561013957600080fd5b91908080601f016020809104026020016040519081016040528093929190818152602001838380828437600081840152601f19601f82011690508083019250505050505050919291929080359060200190929190803590602001906401000000008111156101a657600080fd5b8201836020820111156101b857600080fd5b803590602001918460018302840111640100000000831117156101da57600080fd5b91908080601f016020809104026020016040519081016040528093929190818152602001838380828437600081840152601f19601f8201169050808301925050505050505091929192905050506103ea565b005b6102646004803603604081101561024457600080fd5b81019080803590602001909291908035906020019092919050505061061b565b6040518080602001806020018573ffffffffffffffffffffffffffffffffffffffff1673ffffffffffffffffffffffffffffffffffffffff16815260200180602001848103845288818151815260200191508051906020019080838360005b838110156102de5780820151818401526020810190506102c3565b50505050905090810190601f16801561030b5780820380516001836020036101000a031916815260200191505b50848103835287818151815260200191508051906020019080838360005b83811015610344578082015181840152602081019050610329565b50505050905090810190601f1680156103715780820380516001836020036101000a031916815260200191505b50848103825285818151815260200191508051906020019080838360005b838110156103aa57808201518184015260208101905061038f565b50505050905090810190601f1680156103d75780820380516001836020036101000a031916815260200191505b5097505050505050505060405180910390f35b6103f261084d565b84816000018190525083816020018190525033816040019073ffffffffffffffffffffffffffffffffffffffff16908173ffffffffffffffffffffffffffffffffffffffff16815250508181606001819052506000831415610534576000806001548152602001908152602001600020819080600181540180825580915050906001820390600052602060002090600402016000909192909190915060008201518160000190805190602001906104aa92919061088b565b5060208201518160010190805190602001906104c792919061088b565b5060408201518160020160006101000a81548173ffffffffffffffffffffffffffffffffffffffff021916908373ffffffffffffffffffffffffffffffffffffffff160217905550606082015181600301908051906020019061052b92919061088b565b50505050610614565b6000808481526020019081526020016000208190806001815401808255809150509060018203906000526020600020906004020160009091929091909150600082015181600001908051906020019061058e92919061088b565b5060208201518160010190805190602001906105ab92919061088b565b5060408201518160020160006101000a81548173ffffffffffffffffffffffffffffffffffffffff021916908373ffffffffffffffffffffffffffffffffffffffff160217905550606082015181600301908051906020019061060f92919061088b565b505050505b5050505050565b6000602052816000526040600020818154811061063457fe5b906000526020600020906004020160009150915050806000018054600181600116156101000203166002900480601f0160208091040260200160405190810160405280929190818152602001828054600181600116156101000203166002900480156106e15780601f106106b6576101008083540402835291602001916106e1565b820191906000526020600020905b8154815290600101906020018083116106c457829003601f168201915b505050505090806001018054600181600116156101000203166002900480601f01602080910402602001604051908101604052809291908181526020018280546001816001161561010002031660029004801561077f5780601f106107545761010080835404028352916020019161077f565b820191906000526020600020905b81548152906001019060200180831161076257829003601f168201915b5050505050908060020160009054906101000a900473ffffffffffffffffffffffffffffffffffffffff1690806003018054600181600116156101000203166002900480601f0160208091040260200160405190810160405280929190818152602001828054600181600116156101000203166002900480156108435780601f1061081857610100808354040283529160200191610843565b820191906000526020600020905b81548152906001019060200180831161082657829003601f168201915b5050505050905084565b60405180608001604052806060815260200160608152602001600073ffffffffffffffffffffffffffffffffffffffff168152602001606081525090565b828054600181600116156101000203166002900490600052602060002090601f016020900481019282601f106108cc57805160ff19168380011785556108fa565b828001600101855582156108fa579182015b828111156108f95782518255916020019190600101906108de565b5b509050610907919061090b565b5090565b61092d91905b80821115610929576000816000905550600101610911565b5090565b9056fea165627a7a723058205108d1969f0f21b6442e979e562cc3055c042a5de54f59a87e8ac400bc100a060029",
  "source": "pragma solidity > 0.4.0 <= 0.6.0;\r\n\r\ncontract Evidence{\r\n    \r\n    struct attribute{\r\n        string name;\r\n        string hash;\r\n        address signer;\r\n        string about;\r\n    }\r\n    mapping(uint=>attribute[]) public cases;\r\n    uint private case_num;\r\n    \r\n    constructor()public{\r\n        case_num = 0;\r\n    }\r\n    function add(string memory name, string memory hash, uint num, string memory about) public{\r\n    \r\n        attribute memory temp;\r\n        temp.name = name;\r\n        temp.hash = hash;\r\n        temp.signer = msg.sender;\r\n        temp.about = about;\r\n        \r\n        if(num==0)\r\n        {\r\n            cases[case_num].push(temp);\r\n        }\r\n        else\r\n        {\r\n            cases[num].push(temp);\r\n        }\r\n    }\r\n    /*function show(uint num, uint item)public view returns(string memory, string memory, address, string memory){\r\n        return (cases[num][item].name, cases[num][item].hash, cases[num][item].signer, cases[num][item].about);\r\n    }*/\r\n}",
  "sourcePath": "C:/Users/chris/Desktop/EvidenceApp/contracts/Evidence.sol",
  "compiler": {
    "name": "solc",
    "version": "0.5.8+commit.23d335f2.Emscripten.clang"
  },
  "schemaVersion": "3.0.11",
  "updatedAt": "2020-04-05T22:13:46.539Z",
  "devdoc": {
    "methods": {}
  },
  "userdoc": {
    "methods": {}
  }
}