{
  "contractName": "Evidence",
  "abi": [
    {
      "constant": true,
      "inputs": [
        {
          "name": "",
          "type": "uint256"
        },
        {
          "name": "",
          "type": "uint256"
        }
      ],
      "name": "cases",
      "outputs": [
        {
          "name": "name",
          "type": "string"
        },
        {
          "name": "hash",
          "type": "string"
        },
        {
          "name": "signer",
          "type": "address"
        },
        {
          "name": "about",
          "type": "string"
        }
      ],
      "payable": false,
      "stateMutability": "view",
      "type": "function"
    },
    {
      "inputs": [],
      "payable": false,
      "stateMutability": "nonpayable",
      "type": "constructor"
    },
    {
      "constant": false,
      "inputs": [
        {
          "name": "name",
          "type": "string"
        },
        {
          "name": "hash",
          "type": "string"
        },
        {
          "name": "num",
          "type": "uint256"
        },
        {
          "name": "about",
          "type": "string"
        }
      ],
      "name": "add",
      "outputs": [],
      "payable": false,
      "stateMutability": "nonpayable",
      "type": "function"
    },
    {
      "constant": true,
      "inputs": [],
      "name": "show_case_num",
      "outputs": [
        {
          "name": "",
          "type": "uint256"
        }
      ],
      "payable": false,
      "stateMutability": "view",
      "type": "function"
    },
    {
      "constant": true,
      "inputs": [
        {
          "name": "num",
          "type": "uint256"
        }
      ],
      "name": "show_evi_num",
      "outputs": [
        {
          "name": "",
          "type": "uint256"
        }
      ],
      "payable": false,
      "stateMutability": "view",
      "type": "function"
    },
    {
      "constant": true,
      "inputs": [
        {
          "name": "num",
          "type": "uint256"
        },
        {
          "name": "item",
          "type": "uint256"
        }
      ],
      "name": "show",
      "outputs": [
        {
          "name": "",
          "type": "string"
        },
        {
          "name": "",
          "type": "string"
        },
        {
          "name": "",
          "type": "address"
        },
        {
          "name": "",
          "type": "string"
        }
      ],
      "payable": false,
      "stateMutability": "view",
      "type": "function"
    }
  ],
  "bytecode": "0x608060405234801561001057600080fd5b5060018081905550610e99806100276000396000f3fe608060405234801561001057600080fd5b50600436106100575760003560e01c80633c90dc961461005c5780634187a17d1461007a5780638b75792e1461026d5780639cbd695f14610429578063dad0cd00146105e5575b600080fd5b610064610627565b6040518082815260200191505060405180910390f35b61026b6004803603608081101561009057600080fd5b81019080803590602001906401000000008111156100ad57600080fd5b8201836020820111156100bf57600080fd5b803590602001918460018302840111640100000000831117156100e157600080fd5b91908080601f016020809104026020016040519081016040528093929190818152602001838380828437600081840152601f19601f8201169050808301925050505050505091929192908035906020019064010000000081111561014457600080fd5b82018360208201111561015657600080fd5b8035906020019184600183028401116401000000008311171561017857600080fd5b91908080601f016020809104026020016040519081016040528093929190818152602001838380828437600081840152601f19601f82011690508083019250505050505050919291929080359060200190929190803590602001906401000000008111156101e557600080fd5b8201836020820111156101f757600080fd5b8035906020019184600183028401116401000000008311171561021957600080fd5b91908080601f016020809104026020016040519081016040528093929190818152602001838380828437600081840152601f19601f820116905080830192505050505050509192919290505050610631565b005b6102a36004803603604081101561028357600080fd5b810190808035906020019092919080359060200190929190505050610874565b6040518080602001806020018573ffffffffffffffffffffffffffffffffffffffff1673ffffffffffffffffffffffffffffffffffffffff16815260200180602001848103845288818151815260200191508051906020019080838360005b8381101561031d578082015181840152602081019050610302565b50505050905090810190601f16801561034a5780820380516001836020036101000a031916815260200191505b50848103835287818151815260200191508051906020019080838360005b83811015610383578082015181840152602081019050610368565b50505050905090810190601f1680156103b05780820380516001836020036101000a031916815260200191505b50848103825285818151815260200191508051906020019080838360005b838110156103e95780820151818401526020810190506103ce565b50505050905090810190601f1680156104165780820380516001836020036101000a031916815260200191505b5097505050505050505060405180910390f35b61045f6004803603604081101561043f57600080fd5b810190808035906020019092919080359060200190929190505050610aa6565b6040518080602001806020018573ffffffffffffffffffffffffffffffffffffffff1673ffffffffffffffffffffffffffffffffffffffff16815260200180602001848103845288818151815260200191508051906020019080838360005b838110156104d95780820151818401526020810190506104be565b50505050905090810190601f1680156105065780820380516001836020036101000a031916815260200191505b50848103835287818151815260200191508051906020019080838360005b8381101561053f578082015181840152602081019050610524565b50505050905090810190601f16801561056c5780820380516001836020036101000a031916815260200191505b50848103825285818151815260200191508051906020019080838360005b838110156105a557808201518184015260208101905061058a565b50505050905090810190601f1680156105d25780820380516001836020036101000a031916815260200191505b5097505050505050505060405180910390f35b610611600480360360208110156105fb57600080fd5b8101908080359060200190929190505050610d6b565b6040518082815260200191505060405180910390f35b6000600154905090565b610639610d8a565b84816000018190525083816020018190525033816040019073ffffffffffffffffffffffffffffffffffffffff16908173ffffffffffffffffffffffffffffffffffffffff1681525050818160600181905250600083141561078d576000806001548152602001908152602001600020819080600181540180825580915050906001820390600052602060002090600402016000909192909190915060008201518160000190805190602001906106f1929190610dc8565b50602082015181600101908051906020019061070e929190610dc8565b5060408201518160020160006101000a81548173ffffffffffffffffffffffffffffffffffffffff021916908373ffffffffffffffffffffffffffffffffffffffff1602179055506060820151816003019080519060200190610772929190610dc8565b5050505060016000815480929190600101919050555061086d565b600080848152602001908152602001600020819080600181540180825580915050906001820390600052602060002090600402016000909192909190915060008201518160000190805190602001906107e7929190610dc8565b506020820151816001019080519060200190610804929190610dc8565b5060408201518160020160006101000a81548173ffffffffffffffffffffffffffffffffffffffff021916908373ffffffffffffffffffffffffffffffffffffffff1602179055506060820151816003019080519060200190610868929190610dc8565b505050505b5050505050565b6000602052816000526040600020818154811061088d57fe5b906000526020600020906004020160009150915050806000018054600181600116156101000203166002900480601f01602080910402602001604051908101604052809291908181526020018280546001816001161561010002031660029004801561093a5780601f1061090f5761010080835404028352916020019161093a565b820191906000526020600020905b81548152906001019060200180831161091d57829003601f168201915b505050505090806001018054600181600116156101000203166002900480601f0160208091040260200160405190810160405280929190818152602001828054600181600116156101000203166002900480156109d85780601f106109ad576101008083540402835291602001916109d8565b820191906000526020600020905b8154815290600101906020018083116109bb57829003601f168201915b5050505050908060020160009054906101000a900473ffffffffffffffffffffffffffffffffffffffff1690806003018054600181600116156101000203166002900480601f016020809104026020016040519081016040528092919081815260200182805460018160011615610100020316600290048015610a9c5780601f10610a7157610100808354040283529160200191610a9c565b820191906000526020600020905b815481529060010190602001808311610a7f57829003601f168201915b5050505050905084565b606080600060606000808781526020019081526020016000208581548110610aca57fe5b90600052602060002090600402016000016000808881526020019081526020016000208681548110610af857fe5b90600052602060002090600402016001016000808981526020019081526020016000208781548110610b2657fe5b906000526020600020906004020160020160009054906101000a900473ffffffffffffffffffffffffffffffffffffffff166000808a81526020019081526020016000208881548110610b7557fe5b9060005260206000209060040201600301838054600181600116156101000203166002900480601f016020809104026020016040519081016040528092919081815260200182805460018160011615610100020316600290048015610c1b5780601f10610bf057610100808354040283529160200191610c1b565b820191906000526020600020905b815481529060010190602001808311610bfe57829003601f168201915b50505050509350828054600181600116156101000203166002900480601f016020809104026020016040519081016040528092919081815260200182805460018160011615610100020316600290048015610cb75780601f10610c8c57610100808354040283529160200191610cb7565b820191906000526020600020905b815481529060010190602001808311610c9a57829003601f168201915b50505050509250808054600181600116156101000203166002900480601f016020809104026020016040519081016040528092919081815260200182805460018160011615610100020316600290048015610d535780601f10610d2857610100808354040283529160200191610d53565b820191906000526020600020905b815481529060010190602001808311610d3657829003601f168201915b50505050509050935093509350935092959194509250565b6000806000838152602001908152602001600020805490509050919050565b60405180608001604052806060815260200160608152602001600073ffffffffffffffffffffffffffffffffffffffff168152602001606081525090565b828054600181600116156101000203166002900490600052602060002090601f016020900481019282601f10610e0957805160ff1916838001178555610e37565b82800160010185558215610e37579182015b82811115610e36578251825591602001919060010190610e1b565b5b509050610e449190610e48565b5090565b610e6a91905b80821115610e66576000816000905550600101610e4e565b5090565b9056fea165627a7a723058201c32e20d0f1e76707a22cebf99d70570c7c6ed3b973a49648214994ab668383d0029",
  "source": "pragma solidity > 0.4.0 <= 0.6.0;\r\n\r\ncontract Evidence{\r\n    \r\n    struct attribute{\r\n        string name;\r\n        string hash;\r\n        address signer;\r\n        string about;\r\n    }\r\n    mapping(uint=>attribute[]) public cases;\r\n    uint private case_num;\r\n    \r\n    constructor()public{\r\n        case_num = 1;\r\n    }\r\n    function add(string memory name, string memory hash, uint num, string memory about) public{\r\n    \r\n        attribute memory temp;\r\n        temp.name = name;\r\n        temp.hash = hash;\r\n        temp.signer = msg.sender;\r\n        temp.about = about;\r\n        \r\n        if(num==0)\r\n        {\r\n            cases[case_num].push(temp);\r\n            case_num++;\r\n        }\r\n        else\r\n        {\r\n            cases[num].push(temp);\r\n        }\r\n    }\r\n    \r\n    function show_case_num()public view returns(uint){\r\n        return case_num;\r\n    }\r\n    \r\n    function show_evi_num(uint num)public view returns(uint){\r\n        return cases[num].length;\r\n    }\r\n    \r\n    function show(uint num, uint item)public view returns(string memory, string memory, address, string memory){\r\n        return (cases[num][item].name, cases[num][item].hash, cases[num][item].signer, cases[num][item].about);\r\n    }\r\n}",
  "sourcePath": "C:/Users/chris/Desktop/EvidenceApp/contracts/Evidence.sol",
  "compiler": {
    "name": "solc",
    "version": "0.5.8+commit.23d335f2.Emscripten.clang"
  },
  "schemaVersion": "3.0.11",
  "updatedAt": "2020-04-08T19:03:22.230Z",
  "devdoc": {
    "methods": {}
  },
  "userdoc": {
    "methods": {}
  }
}