{
  "contractName": "giving",
  "abi": [
    {
      "inputs": [],
      "payable": false,
      "stateMutability": "nonpayable",
      "type": "constructor"
    },
    {
      "anonymous": false,
      "inputs": [],
      "name": "OpenDoor",
      "type": "event"
    },
    {
      "constant": false,
      "inputs": [
        {
          "name": "num",
          "type": "uint256"
        }
      ],
      "name": "checkPermission",
      "outputs": [],
      "payable": false,
      "stateMutability": "nonpayable",
      "type": "function"
    },
    {
      "constant": false,
      "inputs": [
        {
          "name": "daily",
          "type": "uint256"
        }
      ],
      "name": "trans",
      "outputs": [],
      "payable": true,
      "stateMutability": "payable",
      "type": "function"
    }
  ],
  "bytecode": "0x608060405234801561001057600080fd5b5033600260006101000a81548173ffffffffffffffffffffffffffffffffffffffff021916908373ffffffffffffffffffffffffffffffffffffffff16021790555060016000803373ffffffffffffffffffffffffffffffffffffffff1673ffffffffffffffffffffffffffffffffffffffff16815260200190815260200160002060006101000a81548160ff02191690831515021790555061045a806100b86000396000f3fe6080604052600436106100295760003560e01c806366c991391461002e578063ab7394991461005c575b600080fd5b61005a6004803603602081101561004457600080fd5b8101908080359060200190929190505050610097565b005b34801561006857600080fd5b506100956004803603602081101561007f57600080fd5b810190808035906020019092919050505061022f565b005b8067016345785d8a000002341015610117576040517f08c379a00000000000000000000000000000000000000000000000000000000081526004018080602001828103825260188152602001807f506c656173652073656e6420656e6f756768206d6f6e6579000000000000000081525060200191505060405180910390fd5b600260009054906101000a900473ffffffffffffffffffffffffffffffffffffffff1673ffffffffffffffffffffffffffffffffffffffff166108fc8267016345785d8a0000029081150290604051600060405180830381858888f19350505050158015610189573d6000803e3d6000fd5b506201518081024201600160003373ffffffffffffffffffffffffffffffffffffffff1673ffffffffffffffffffffffffffffffffffffffff1681526020019081526020016000208190555060016000803373ffffffffffffffffffffffffffffffffffffffff1673ffffffffffffffffffffffffffffffffffffffff16815260200190815260200160002060006101000a81548160ff02191690831515021790555050565b600115156000803373ffffffffffffffffffffffffffffffffffffffff1673ffffffffffffffffffffffffffffffffffffffff16815260200190815260200160002060009054906101000a900460ff161515146102f4576040517f08c379a00000000000000000000000000000000000000000000000000000000081526004018080602001828103825260198152602001807f596f7520646f6e27742068617665207065726d697373696f6e0000000000000081525060200191505060405180910390fd5b600260009054906101000a900473ffffffffffffffffffffffffffffffffffffffff1673ffffffffffffffffffffffffffffffffffffffff163373ffffffffffffffffffffffffffffffffffffffff16146103ff5742600160003373ffffffffffffffffffffffffffffffffffffffff1673ffffffffffffffffffffffffffffffffffffffff1681526020019081526020016000205410156103fe576040517f08c379a000000000000000000000000000000000000000000000000000000000815260040180806020018281038252601e8152602001807f596f7572207065726d697373696f6e206973206f7574206f662064617465000081525060200191505060405180910390fd5b5b7f18507b00ac5716f819c8cbc32ff10f4f9c9182dae2dd8faf902e352c817481cf60405160405180910390a15056fea165627a7a72305820a70c12f7d05296f8dd1742594629b023a8f8eaed9877e7a1a348b887e41376b70029",
  "source": "pragma solidity >=0.4.0 <0.6.0;\r\n\r\ncontract giving{\r\n    \r\n    //Create a variable for each possible address\r\n    event OpenDoor();\r\n    mapping (address=>bool) private ownership;\r\n    mapping(address=>uint256) private contract_time;\r\n    //Save the owner address \r\n    address payable master;\r\n    \r\n    constructor() public{\r\n        master = msg.sender;\r\n        ownership[msg.sender] = true;\r\n    }\r\n    function checkPermission(uint num) public{\r\n        require(ownership[msg.sender]==true, \"You don't have permission\");\r\n        if(msg.sender != master)\r\n            require(contract_time[msg.sender] >= now, \"Your permission is out of date\");\r\n        emit OpenDoor();\r\n    }\r\n    function trans(uint daily) public payable{\r\n        require(msg.value >= 100000000000000000*daily, \"Please send enough money\");\r\n        master.transfer(100000000000000000*daily);\r\n        contract_time[msg.sender] = now + daily * 1 days;\r\n        ownership[msg.sender] = true;\r\n    }\r\n}",
  "sourcePath": "C:/Users/chris/Desktop/EvidenceApp/contracts/giving.sol",
  "compiler": {
    "name": "solc",
    "version": "0.5.8+commit.23d335f2.Emscripten.clang"
  },
  "schemaVersion": "3.0.11",
  "updatedAt": "2020-03-26T08:41:18.728Z",
  "devdoc": {
    "methods": {}
  },
  "userdoc": {
    "methods": {}
  }
}